:020000040800F2
:10000000D8040020D5000008D1070008CD0700085B
:1000100000000000000000000000000000000000E0
:100020000000000000000000000000005B08000865
:10003000000000000000000059080008AD0800089A
:10004000E7000008E7000008E7000008E7000008F4
:10005000E7000008E7000008E7000008E7000008E4
:1000600000000000E7000008E700000800000000B2
:10007000E7000008E7000008E700000800000000B3
:10008000E7000008E700000800000000E7000008A3
:1000900000000000E7000008E7000008E700000893
:1000A00000000000E7000008E7000008E700000883
:1000B000E700000800000000000000000000000051
:1000C0000348854600F02AFA0048004775060008F4
:1000D000D80400200448804704480047FEE7FEE7B4
:1000E000FEE7FEE7FEE7FEE7B5080008C1000008EE
:1000F00070B50446002903D000202022012310E01F
:10010000002801D00020C043C046C0460DE025466F
:10011000D5408D4205D30D469540641B1D46954044
:1001200040191546521E002DF1DC214670BDF0B578
:100130001FB40646002082B005464024019100907D
:100140001BE0019922460F46304600F00FFA049A50
:10015000059B801A994110D310461946224600F09B
:10016000F5F9361A8F410197224601200021009FA0
:1001700000F0ECF938184D4100902046641E00282C
:10018000DFDC019B00982946324607B0F0BD000035
:10019000F0B507460846584087B0C00F04904800A5
:1001A0000E46590040084908BC1A884105D2384615
:1001B00031461E4617460B4602465800400810437B
:1001C0004CD0300D039040055900400D490D05906D
:1001D000401A0290402872DA18030121000B090529
:1001E0000843019004980092002805D001995242DA
:1001F0000020884100920190029840210A1A01993A
:10020000009800F0A3F905460C466B4607CB00F0BA
:10021000BEF9C0197141039A0E0D0023D71756403D
:100220001A467A40164344D0049A002A2DD0029AE6
:10023000012A039A15DC1205C01A914101263605E0
:10024000001C7141D20F059ED207009301920296C5
:100250002A46234600F0BBF907B0F0BD38463146C8
:10026000FAE71605224A0F46B218C01AB741012113
:100270000905001C4F4100187F41114618187941AB
:10028000E20F10436D19644113E0E2076D08154356
:100290006408C2071443039A01261205C01A91414B
:1002A0003605001C7141CE07400830434908C0188C
:1002B00051412A46234600F07DF9CDE7FFE7049837
:1002C00001224000C117121A00238B4104983146C5
:1002D000C417381AA141EEE730B40124E4076340A3
:1002E00030BC55E730B40124E407614030BC4FE72F
:1002F0000000E0FFF0B51FB488B00B990998002406
:1003000048400999C00F490049080991C0070B9955
:100310000090490049080B9109990898A64608439E
:100320001CD00B990A98084318D009980124400062
:10033000420D4800410D099824050003000B20439D
:1003400009900B980003000B20430B9050181C4998
:100350004018002201901446104605E00020014696
:100360000DB0F0BD032801DA034600E003239C46EC
:10037000C11A0AAE0AE05F0008ADED5B4F00F75B03
:100380007D430027AA187C41491C5B1E6145F2DDB4
:10039000410004AB5A522104120C0A43240C401CA5
:1003A0000828DFDB019802900099704601910090C7
:1003B000059B049A0799069800F009F9D0E7000018
:1003C0000DFCFFFFF0B50C465C4085B0E40FE40780
:1003D00003944C00002664085900944649080246DC
:1003E0000296224321D062460A431ED06200570D76
:1003F0004A000E032303550D012402462C4924050F
:10040000781B1B0B360B4018234326436146009094
:100410001C46501AB44103D30098401C009002E0DF
:10042000921800985B41002803DA0020014605B0CD
:10043000F0BD0020012109050746864611E064460B
:100440001D46141BB54106D36546521BB341744685
:1004500007430C43A646CD07400849082843921895
:100460005B4105460D43EAD11046184313D0604660
:10047000194650407140084306D06046101AB341F7
:1004800006D20122002306E000220123DB0702E05E
:100490000122D2435310009874460105381C614173
:1004A000029C039D0019694100F084F8BFE7000039
:1004B000FD0300004A0009030123090B1B05194332
:1004C0000A4B10B5520D9A4202DA0020014610BDC7
:1004D000064B34339A4203DC9A1A00F047F810BDF9
:1004E000034BD21800F032F810BD0000FF030000EB
:1004F000CDFBFFFF10B5002904DB0124E4074042D7
:100500008C412146002B04DB1C460123DB075242B1
:10051000A341994200D1904210BD00001CB509488A
:1005200000900948019005460126009C05E0E3681B
:1005300007CC33430C3C98471034AC42F7D3FFF759
:10054000C3FD000080120008A012000810B5202A88
:1005500004DB0146203A9140002010BD9140202349
:100560009C1A0346E3401943904010BD10B5202A61
:1005700004DB0846203AD040002110BD0B46D34092
:10058000D0402024A21A91400843194610BD10B54E
:10059000202A06DBCB170846203A1041C1170B432F
:1005A00006E00B461341D0402024A21A9140084394
:1005B000194610BD10B5002B08DA0024401C61411B
:1005C00092185B411A4301D14008400010BDF0B5BC
:1005D0001FB482B005460C0003D0084600F0AAF90B
:1005E00002E000F0A7F9203002460090214628469C
:1005F000FFF7ACFF049B059A04460F4618431143CE
:10060000084314D0184610431BD0009840210A1A02
:1006100018460599FFF7AAFF05460E46009A059968
:100620000498FFF793FF084305D0012004E020461B
:10063000394607B0F0BD0020C11705430E432C43D7
:10064000374300990E986305401A7905E40A0022A1
:100650000C43FD0A0A3002D500200146E9E70105F6
:10066000101969410C9C0D9D00196941FFF7A2FF0B
:10067000DFE7000080B582B00120C006009001A92C
:1006800000200870FFE701A800782F280DDCFFE7A5
:10069000009801A909788A00805808498850FFE726
:1006A0000198401C01A90870EDE7012040078C4922
:1006B000086000F025F9002002B080BD0000002095
:1006C0002D48026802490868801808607047C046D3
:1006D000D000002080B582B001A90020087003205E
:1006E00000F00EF8002804D0FFE701A901200870EF
:1006F00002E000F047F8FFE701A8007802B080BDF3
:1007000080B584B0039002A9002008701A480068E0
:10071000002829D0FFE719480068019016480168B1
:100720007D20C000FFF7E4FC01460198FFF7E0FCE4
:1007300000F044F8002812D1FFE70398032809D8F5
:10074000FFE703990022D04300F01EF803980C49FC
:10075000086003E002A901200870FFE703E002A996
:1007600001200870FFE703E002A901200870FFE7FD
:1007700002A8007804B080BDC8000020C40000209A
:10078000CC0000207047000080B584B003AB187027
:10079000029101920298032801D8FFE704E006487D
:1007A0008A2100F09FF8FFE7002103A84056029934
:1007B00000F010F804B080BD4512000880B582B08A
:1007C0000190019800F04AF802B080BDFFE7FEE713
:1007D0007047000070B582B0024601A80270009117
:1007E0000021405600281BD5FFE701A908780F24F7
:1007F000204008380322D3431840164A8058002569
:1008000049578D07EE0EFF25B540A843009DAD0169
:10081000EDB2B5402843214008391940885015E011
:10082000002401A908570322D3431840084A8058DE
:1008300009578C07E50EFF24AC40A043009CA4019F
:10084000E4B2AC40204319408850FFE702B070BDCD
:1008500000E400E01CED00E07047704780B584B014
:1008600002900298401E000E002803D0FFE70120EE
:10087000039011E00298401E094908600020019091
:10088000C0430321FFF7A6FF019806490860064A06
:10089000072111600390FFE7039804B080BDC046B4
:1008A00014E000E018E000E010E000E080B5FFF7A1
:1008B00007FF80BD074A11680748014007480068E4
:1008C00001430120430319431160C0060449086035
:1008D0007047C046041002400000FFFF040FFF1FD6
:1008E00008ED00E080B582B0019000910199009A76
:1008F000024800F00FF802B080BDC0463E1200086A
:1009000080B582B0002000900190FFF7E3FE0098D0
:1009100002B080BD0FB410B503A9044B044A02987D
:1009200000F0E8F810BC08BC04B018472D1200080D
:10093000C00000202021020C01D010211046020A24
:1009400001D010460839020901D01046091F82085B
:1009500001D01046891E420801D0881E7047081A2F
:10096000704702E008C8121F08C1002AFAD1704778
:100970007047002001E001C1121F002AFBD170471F
:10098000F0B51FB486B00998089A030D0021024300
:1009900014D05148514A1818504305141198012891
:1009A00010981AD0281A401C00264D4F4D49009629
:1009B00001910490002812DA444211E011980124B8
:1009C00049A3012801D11098C1430698119A846067
:1009D0000360C26041600BB0F0BD4042E4E70446F2
:1009E000210500203F4A001C51410391029012E072
:1009F000E00707D032463B4601990098FFF77AFCA2
:100A00000191009032463B4610461946FFF772FCB2
:100A100006460F466410002CEAD10498039B002878
:100A2000029A0999089806DAFFF764FC019B009A7C
:100A3000FFF760FC05E0FFF7C5FC019B009AFFF79C
:100A4000C1FC04460E460022284BFFF753FD03D895
:100A50000020C043014607E00022254B20463146D6
:100A6000FFF796FBFFF726FD102409E0002C0ADBB8
:100A70000A220023FFF75BFB079B30321A55641EE6
:100A800002460A43F2D11122641C079B121B1C1957
:100A9000119B012B03D0012308430ED10AE0084328
:100AA00004D0112010900020119077E71098151AAB
:100AB0006D1E0BE01098824202DD00236D1C03E0E6
:100AC000824201DA00236D1E002BEED006981199A8
:100AD0008260C16030C07EE701FCFFFF104D000066
:100AE000000014400000F03F300000000000F04320
:100AF0000000E03FFFB597B00646002518E2252824
:100B000077D100242746FD49049400E00443761C75
:100B100032780120203A90400842F7D130782A28D4
:100B20000ED00222307801463039092916D80499AE
:100B30000A235943303940181443761C0490F1E7D6
:100B4000189802C804911890002904DA0120400383
:100B500004434842049002200443761C30782E2837
:100B600014D1042004437078761C2A2809D11898DF
:100B7000761C80C8189009E00A214F43303FC719FE
:100B8000761C3078014630390929F5D930786C283F
:100B900010D006DC4C281AD068280ED06A2817D14D
:100BA00004E0742813D07A2812D110E00120400507
:100BB00004430CE00121090501E0032109050C4370
:100BC0007178814203D1012000052418761C761C1F
:100BD0003078119066280BD013DC58287DD009DCC2
:100BE00000287BD04528F6D04628F4D047281AD1D3
:100BF000A5E118E0632835D0642870D0652812D1AB
:100C00009DE170286CD008DC6728F1D069287BD082
:100C10006E280DD06F2806D1BAE073282ED0752823
:100C200071D0782859D01A9A199990476D1C7EE195
:100C30006002400F022809D003280DD0042818981C
:100C400001680DD00D60001D189070E11898EA172A
:100C500001680D604A60F6E7189801680D80F2E7B8
:100C60000D70F0E718986A4601781172001D18900F
:100C70000020507202A80090012005E0189802C8D8
:100C8000189000200091C04361070DD5002101E0BC
:100C90000199491C0191B94212DA8142F8DB009AAC
:100CA000515C0029F4D10BE0002101E00199491CBD
:100CB00001918142FADB019A0099895C0029F5D102
:100CC000019904981A9B471A21463846199A00F050
:100CD00097FA0199401945180BE04FE02CE113E019
:100CE0004EE0009800990078491C00911A9A1999D1
:100CF00090470198401E0190401CF2D12146384691
:100D00001A9B199A10E137E00A2000210090019106
:100D10006002410F022907D0189A01CA1892C2171F
:100D20009446032908D00AE01898C01DC108C900DC
:100D300005C91891944607E000B2C21794460429E9
:100D400002D140B2C1178C4600226146944506DAB2
:100D50000A460021404291418C462D2102E02105A6
:100D600004D52B216A461173012103E0E10701D06C
:100D70002021F7E7029155E00A200AE0102008E060
:100D8000102000900021042004430191082703E073
:100D900008200021019100906002410F022907D034
:100DA000189A01CA189200229446032908D008E034
:100DB0001898C01DC108C90005C91891944603E0E0
:100DC00080B2042900D1C0B200210291210729D5A7
:100DD0001199702906D0009A1021019B4A401A43AC
:100DE00005D00EE040216A461173012108E06146FA
:100DF000014306D030216A461173119951730221C3
:100E00000291009A0821019B4A401A430AD1614687
:100E1000014301D1610705D530216A4611730121D3
:100E20007F1E02911199582904D035A10E910DA968
:100E30000D910DE037A1F9E76146019B009AFFF79C
:100E400076F90E9B8C469B5C0D9A521E0D92137088
:100E500061460143F0D10D9805A9081A2030019090
:100E6000600703D501200004844300E001270198B6
:100E7000874201DD381A00E00020019900904118F6
:100E8000029809180498401A0490E00306D42146F9
:100E90001A9B199A049800F0B3F94519002706E047
:100EA00003A81A9AC05D199990476D1C7F1C02987F
:100EB0008742F5DBE0030CD521461A9B199A04986A
:100EC00000F09EF9451904E01A9A302019999047CC
:100ED0006D1C0099481E00900029F5DC08E00D9873
:100EE0000D990078491C0D911A9A199990476D1C1B
:100EF0000199481E01900029F1DC63E109280100F5
:100F0000303132333435363738396162636465667F
:100F10000000000030313233343536373839414241
:100F2000434445460000000000F05AF94519761C7C
:100F30003078002800D0E2E528461BB0F0BD6007FD
:100F400000D406271898C01DC108C90048680A685F
:100F50000831C30FDB071891190001D09CA108E0EC
:100F6000210501D59BA104E0E10701D09AA100E091
:100F70009AA1430011985B08109165280CD006DCFB
:100F8000452809D046281DD0472841D141E0662890
:100F900018D067283CD13CE00021112F01DB112043
:100FA00000E0781C0191009008A911A8FFF7E8FC67
:100FB000139905910021119A15927F1C129801979F
:100FC000009150E00120C00703900120019008A982
:100FD000009711A8FFF7D4FC139A149905920022E8
:100FE000119B009212981593059A0192002901D045
:100FF000104602E0791C40180190381A01D501987A
:1010000004E04042401E0090781C0190C01B0290FA
:1010100043E0012F00DA01270021112F01DD11200B
:1010200000E038460191009008A911A8FFF7A8FC3C
:1010300013990591119A0021129815920091019728
:1010400021070CD40599B94201DB019900E0019117
:10105000012904DD159A491E515C302906D0B84299
:1010600001DA011D05DA0121029115E00199491EFD
:10107000EDE7002805DC0099411800910199091A53
:1010800003E0019A411C914200DD01910099401A50
:10109000401C02900120C0070390200706D402994B
:1010A0000198814202DB0020C04302900020694683
:1010B000C87707AF012103980337C907884224D0B6
:1010C000022011902B201290039800280CDA404245
:1010D00003902D20129007E00A210398FFF708F8EB
:1010E00030317F1E039039701199481E11900029EC
:1010F000F2DC03980028EFD1791E1298087030783E
:10110000202108404530BF1E387006A8C01BC01DF6
:10111000039010980078002800D001200199411810
:101120000298C0170918039809180498401A401E1D
:101130000490E00306D421461A9B199A049800F003
:101140005FF8451910980078002803D01A9A199969
:1011500090476D1CE00324D521461A9B199A0498E8
:1011600000F04EF845191CE00098002807DB0099B4
:101170000598884203DD1598405C199901E019999A
:1011800030201A9A904700986D1C401C00900298DD
:10119000401E0290002804D11A9A2E2019999047D7
:1011A0006D1C0199481E01900029DDDC05E03878AE
:1011B0001A9A7F1C199990476D1C0399481E039039
:1011C0000029F4DC21461A9B199A0498ACE6000029
:1011D0002D0000002B000000200000000000000097
:1011E000F8B5044600251E461746880404D405E0D9
:1011F00039462020B0476D1C641EF9D52846F8BD3D
:10120000FFB50446002581B01E46C80301D530272E
:1012100000E02027880404D505E038460399B0474C
:101220006D1C641EF9D5284605B0F0BD38B50446DE
:101230006846047069460320ABBE204638BD25735E
:101240002C202564002E2E2F447269766572732F30
:1012500041495230303178785F48414C5F4472697F
:101260007665722F5372632F6169723030317878EE
:101270005F68616C5F636F727465782E6300000055
:10128000A012000800000020D00000006209000841
:1012900070130008D0000020080400007209000844
:1012A000000000000000000000000000000000003E
:1012B000000000000000000000000000000000002E
:1012C000000000000000000000000000000000001E
:1012D000000000000000000000000000000000000E
:1012E00000000000000000000000000000000000FE
:1012F00000000000000000000000000000000000EE
:1013000000000000000000000000000000000000DD
:1013100000000000000000000000000000000000CD
:1013200000000000000000000000000000000000BD
:1013300000000000000000000000000000000000AD
:10134000000000000000000000000000000000009D
:10135000000000000000000000000000000000008D
:101360000000000000127A000100000004000000EC
:04000005080000C12E
:00000001FF
